{
  "contractName": "Weather_Response",
  "abi": [
    {
      "inputs": [],
      "stateMutability": "nonpayable",
      "type": "constructor"
    },
    {
      "anonymous": false,
      "inputs": [
        {
          "indexed": false,
          "internalType": "string",
          "name": "sender_address",
          "type": "string"
        },
        {
          "indexed": false,
          "internalType": "string",
          "name": "temp",
          "type": "string"
        },
        {
          "indexed": false,
          "internalType": "string",
          "name": "wind",
          "type": "string"
        },
        {
          "indexed": false,
          "internalType": "string",
          "name": "description",
          "type": "string"
        },
        {
          "indexed": false,
          "internalType": "string",
          "name": "jsonCID",
          "type": "string"
        }
      ],
      "name": "weatherData",
      "type": "event"
    },
    {
      "inputs": [
        {
          "internalType": "address",
          "name": "_allowedAddress",
          "type": "address"
        }
      ],
      "name": "addAllowedAddress",
      "outputs": [],
      "stateMutability": "nonpayable",
      "type": "function"
    },
    {
      "inputs": [
        {
          "internalType": "address",
          "name": "_uA",
          "type": "address"
        }
      ],
      "name": "isAddressAllowed",
      "outputs": [
        {
          "internalType": "bool",
          "name": "",
          "type": "bool"
        }
      ],
      "stateMutability": "view",
      "type": "function"
    },
    {
      "inputs": [
        {
          "internalType": "string",
          "name": "_sender_address",
          "type": "string"
        },
        {
          "internalType": "string",
          "name": "_temp",
          "type": "string"
        },
        {
          "internalType": "string",
          "name": "_wind",
          "type": "string"
        },
        {
          "internalType": "string",
          "name": "_description",
          "type": "string"
        },
        {
          "internalType": "string",
          "name": "_jsonCID",
          "type": "string"
        }
      ],
      "name": "emitWeatherData",
      "outputs": [],
      "stateMutability": "nonpayable",
      "type": "function"
    }
  ],
  "bytecode": "0x608060405234801561001057600080fd5b50336000806101000a81548173ffffffffffffffffffffffffffffffffffffffff021916908373ffffffffffffffffffffffffffffffffffffffff16021790555061072b806100606000396000f3fe608060405234801561001057600080fd5b50600436106100415760003560e01c80637d91420b1461004657806381788e2b146100625780638fa2a9031461007e575b600080fd5b610060600480360381019061005b9190610361565b6100ae565b005b61007c600480360381019061007791906104dc565b61014b565b005b610098600480360381019061009391906104dc565b610296565b6040516100a59190610524565b60405180910390f35b6100b733610296565b6100f6576040517f08c379a00000000000000000000000000000000000000000000000000000000081526004016100ed9061059c565b60405180910390fd5b7f77cb0c9cd47d9a364753ab89ca4c1eb44a403e80b15dc92504a965771fc7fdd08a8a8a8a8a8a8a8a8a8a6040516101379a99989796959493929190610609565b60405180910390a150505050505050505050565b60008054906101000a900473ffffffffffffffffffffffffffffffffffffffff1673ffffffffffffffffffffffffffffffffffffffff163373ffffffffffffffffffffffffffffffffffffffff16146101d9576040517f08c379a00000000000000000000000000000000000000000000000000000000081526004016101d0906106d5565b60405180910390fd5b6101e281610296565b61029357600280549050600160008373ffffffffffffffffffffffffffffffffffffffff1673ffffffffffffffffffffffffffffffffffffffff168152602001908152602001600020819055506002819080600181540180825580915050600190039060005260206000200160009091909190916101000a81548173ffffffffffffffffffffffffffffffffffffffff021916908373ffffffffffffffffffffffffffffffffffffffff1602179055505b50565b600080600160008473ffffffffffffffffffffffffffffffffffffffff1673ffffffffffffffffffffffffffffffffffffffff1681526020019081526020016000205411156102e857600190506102ed565b600090505b919050565b600080fd5b600080fd5b600080fd5b600080fd5b600080fd5b60008083601f840112610321576103206102fc565b5b8235905067ffffffffffffffff81111561033e5761033d610301565b5b60208301915083600182028301111561035a57610359610306565b5b9250929050565b60008060008060008060008060008060a08b8d031215610384576103836102f2565b5b60008b013567ffffffffffffffff8111156103a2576103a16102f7565b5b6103ae8d828e0161030b565b9a509a505060208b013567ffffffffffffffff8111156103d1576103d06102f7565b5b6103dd8d828e0161030b565b985098505060408b013567ffffffffffffffff811115610400576103ff6102f7565b5b61040c8d828e0161030b565b965096505060608b013567ffffffffffffffff81111561042f5761042e6102f7565b5b61043b8d828e0161030b565b945094505060808b013567ffffffffffffffff81111561045e5761045d6102f7565b5b61046a8d828e0161030b565b92509250509295989b9194979a5092959850565b600073ffffffffffffffffffffffffffffffffffffffff82169050919050565b60006104a98261047e565b9050919050565b6104b98161049e565b81146104c457600080fd5b50565b6000813590506104d6816104b0565b92915050565b6000602082840312156104f2576104f16102f2565b5b6000610500848285016104c7565b91505092915050565b60008115159050919050565b61051e81610509565b82525050565b60006020820190506105396000830184610515565b92915050565b600082825260208201905092915050565b7f77726f6e6720616464726573732c2063616e7420656d69740000000000000000600082015250565b600061058660188361053f565b915061059182610550565b602082019050919050565b600060208201905081810360008301526105b581610579565b9050919050565b82818337600083830152505050565b6000601f19601f8301169050919050565b60006105e8838561053f565b93506105f58385846105bc565b6105fe836105cb565b840190509392505050565b600060a0820190508181036000830152610624818c8e6105dc565b90508181036020830152610639818a8c6105dc565b9050818103604083015261064e81888a6105dc565b905081810360608301526106638186886105dc565b905081810360808301526106788184866105dc565b90509b9a5050505050505050505050565b7f77726f6e67206f776e65722c2063616e74206164642061646472657373000000600082015250565b60006106bf601d8361053f565b91506106ca82610689565b602082019050919050565b600060208201905081810360008301526106ee816106b2565b905091905056fea26469706673582212209d86cd959c2d9692f596fd1cc438de1914e89529ce60cd9d2ac7d12f5ecddc2264736f6c634300080a0033",
  "immutableReferences": {},
  "source": "// SPDX-License-Identifier: MIT\r\n// DecentAPI - 2021\r\npragma solidity >= 0.5.16 < 0.9.0;\r\n  \r\ncontract Weather_Response {\r\n\r\n    address admin;\r\n    mapping (address => uint) index;\r\n    address[] allowedAddresses;\r\n    \r\n\r\n    constructor()  {\r\n        admin = msg.sender;\r\n    }\r\n\r\n    function addAllowedAddress(address _allowedAddress) external {\r\n        if (msg.sender != admin) {\r\n            revert('wrong owner, cant add address');\r\n        }\r\n        \r\n        if (!isAddressAllowed(_allowedAddress)) {\r\n            index[_allowedAddress] = allowedAddresses.length;\r\n            allowedAddresses.push(_allowedAddress);\r\n        }\r\n\r\n    }\r\n    \r\n    function isAddressAllowed(address _uA) public view returns (bool) {\r\n        \r\n        if (index[_uA] > 0) {\r\n            return true;\r\n        }\r\n        return false;\r\n    }\r\n\r\n    event weatherData(\r\n        string sender_address,\r\n        string temp,\r\n        string wind,\r\n        string description,\r\n        string jsonCID\r\n    );\r\n\r\n    function emitWeatherData(\r\n        string calldata _sender_address,\r\n        string calldata _temp,\r\n        string calldata _wind,\r\n        string calldata _description,\r\n        string calldata _jsonCID\r\n\r\n        ) external {\r\n\r\n        if (!isAddressAllowed(msg.sender)) {\r\n        revert('wrong address, cant emit');\r\n        }\r\n\r\n        emit weatherData(\r\n            _sender_address, \r\n            _temp,\r\n            _wind,\r\n            _description,\r\n            _jsonCID\r\n  \r\n            );\r\n\r\n\r\n\r\n    }\r\n\r\n    \r\n\r\n\r\n}",
  "sourcePath": "C:\\Users\\Salah\\projects\\web3_weather\\contracts\\Weather_Response.sol",
  "compiler": {
    "name": "solc",
    "version": "0.8.10+commit.fc410830.Emscripten.clang"
  },
  "schemaVersion": "3.4.3",
  "updatedAt": "2021-12-25T02:29:09.094Z",
  "devdoc": {
    "kind": "dev",
    "methods": {},
    "version": 1
  },
  "userdoc": {
    "kind": "user",
    "methods": {},
    "version": 1
  }
}