{
  "contractName": "Weather_Request",
  "abi": [
    {
      "inputs": [],
      "stateMutability": "nonpayable",
      "type": "constructor"
    },
    {
      "anonymous": false,
      "inputs": [
        {
          "indexed": false,
          "internalType": "string",
          "name": "cityName",
          "type": "string"
        },
        {
          "indexed": false,
          "internalType": "bool",
          "name": "isMetric",
          "type": "bool"
        }
      ],
      "name": "cityParams",
      "type": "event"
    },
    {
      "inputs": [],
      "name": "isActive",
      "outputs": [
        {
          "internalType": "bool",
          "name": "",
          "type": "bool"
        }
      ],
      "stateMutability": "view",
      "type": "function",
      "constant": true
    },
    {
      "inputs": [],
      "name": "price",
      "outputs": [
        {
          "internalType": "uint256",
          "name": "",
          "type": "uint256"
        }
      ],
      "stateMutability": "view",
      "type": "function",
      "constant": true
    },
    {
      "inputs": [
        {
          "internalType": "string",
          "name": "_cityName",
          "type": "string"
        },
        {
          "internalType": "bool",
          "name": "_isMetric",
          "type": "bool"
        }
      ],
      "name": "sendCityParams",
      "outputs": [],
      "stateMutability": "payable",
      "type": "function",
      "payable": true
    },
    {
      "inputs": [
        {
          "internalType": "uint256",
          "name": "_price",
          "type": "uint256"
        }
      ],
      "name": "setPrices",
      "outputs": [],
      "stateMutability": "nonpayable",
      "type": "function"
    },
    {
      "inputs": [
        {
          "internalType": "bool",
          "name": "_isActive",
          "type": "bool"
        }
      ],
      "name": "setApiState",
      "outputs": [],
      "stateMutability": "nonpayable",
      "type": "function"
    },
    {
      "inputs": [
        {
          "internalType": "address payable",
          "name": "recipient",
          "type": "address"
        },
        {
          "internalType": "uint256",
          "name": "amount",
          "type": "uint256"
        }
      ],
      "name": "transferFunds",
      "outputs": [],
      "stateMutability": "nonpayable",
      "type": "function"
    }
  ],
  "bytecode": "0x608060405234801561001057600080fd5b50336001806101000a81548173ffffffffffffffffffffffffffffffffffffffff021916908373ffffffffffffffffffffffffffffffffffffffff160217905550610a23806100606000396000f3fe6080604052600436106100555760003560e01c8063137769db1461005a57806322f3e2d4146100835780638043797f146100ae578063990dc9db146100ca578063a035b1fe146100f3578063a3201daa1461011e575b600080fd5b34801561006657600080fd5b50610081600480360381019061007c91906104b7565b610147565b005b34801561008f57600080fd5b506100986101f2565b6040516100a591906104f3565b60405180910390f35b6100c860048036038101906100c39190610573565b610205565b005b3480156100d657600080fd5b506100f160048036038101906100ec9190610667565b6102eb565b005b3480156100ff57600080fd5b506101086103d7565b60405161011591906106b6565b60405180910390f35b34801561012a57600080fd5b50610145600480360381019061014091906106d1565b6103dd565b005b60018054906101000a900473ffffffffffffffffffffffffffffffffffffffff1673ffffffffffffffffffffffffffffffffffffffff163373ffffffffffffffffffffffffffffffffffffffff16146101d5576040517f08c379a00000000000000000000000000000000000000000000000000000000081526004016101cc9061075b565b60405180910390fd5b80600160006101000a81548160ff02191690831515021790555050565b600160009054906101000a900460ff1681565b66038d7ea4c6800060005461021a91906107aa565b34101561025c576040517f08c379a000000000000000000000000000000000000000000000000000000000815260040161025390610850565b60405180910390fd5b600160009054906101000a900460ff166102ab576040517f08c379a00000000000000000000000000000000000000000000000000000000081526004016102a2906108e2565b60405180910390fd5b7f639c8bb3e68e035027fea99bdc373ea21ac7202e91b36c896059b11cdd2b7ed58383836040516102de9392919061094f565b60405180910390a1505050565b60018054906101000a900473ffffffffffffffffffffffffffffffffffffffff1673ffffffffffffffffffffffffffffffffffffffff163373ffffffffffffffffffffffffffffffffffffffff1614610379576040517f08c379a0000000000000000000000000000000000000000000000000000000008152600401610370906109cd565b60405180910390fd5b8173ffffffffffffffffffffffffffffffffffffffff166108fc670de0b6b3a7640000836103a791906107aa565b9081150290604051600060405180830381858888f193505050501580156103d2573d6000803e3d6000fd5b505050565b60005481565b60018054906101000a900473ffffffffffffffffffffffffffffffffffffffff1673ffffffffffffffffffffffffffffffffffffffff163373ffffffffffffffffffffffffffffffffffffffff161461046b576040517f08c379a00000000000000000000000000000000000000000000000000000000081526004016104629061075b565b60405180910390fd5b8060008190555050565b600080fd5b600080fd5b60008115159050919050565b6104948161047f565b811461049f57600080fd5b50565b6000813590506104b18161048b565b92915050565b6000602082840312156104cd576104cc610475565b5b60006104db848285016104a2565b91505092915050565b6104ed8161047f565b82525050565b600060208201905061050860008301846104e4565b92915050565b600080fd5b600080fd5b600080fd5b60008083601f8401126105335761053261050e565b5b8235905067ffffffffffffffff8111156105505761054f610513565b5b60208301915083600182028301111561056c5761056b610518565b5b9250929050565b60008060006040848603121561058c5761058b610475565b5b600084013567ffffffffffffffff8111156105aa576105a961047a565b5b6105b68682870161051d565b935093505060206105c9868287016104a2565b9150509250925092565b600073ffffffffffffffffffffffffffffffffffffffff82169050919050565b60006105fe826105d3565b9050919050565b61060e816105f3565b811461061957600080fd5b50565b60008135905061062b81610605565b92915050565b6000819050919050565b61064481610631565b811461064f57600080fd5b50565b6000813590506106618161063b565b92915050565b6000806040838503121561067e5761067d610475565b5b600061068c8582860161061c565b925050602061069d85828601610652565b9150509250929050565b6106b081610631565b82525050565b60006020820190506106cb60008301846106a7565b92915050565b6000602082840312156106e7576106e6610475565b5b60006106f584828501610652565b91505092915050565b600082825260208201905092915050565b7f77726f6e67206f776e65722c2063616e74207570646174650000000000000000600082015250565b60006107456018836106fe565b91506107508261070f565b602082019050919050565b6000602082019050818103600083015261077481610738565b9050919050565b7f4e487b7100000000000000000000000000000000000000000000000000000000600052601160045260246000fd5b60006107b582610631565b91506107c083610631565b9250817fffffffffffffffffffffffffffffffffffffffffffffffffffffffffffffffff04831182151516156107f9576107f861077b565b5b828202905092915050565b7f4e6f7420656e6f75676820657468657200000000000000000000000000000000600082015250565b600061083a6010836106fe565b915061084582610804565b602082019050919050565b600060208201905081810360008301526108698161082d565b9050919050565b7f41504920696e6163746976652c20636865636b20646563656e746170692e636f60008201527f6d20666f72207374617475732e00000000000000000000000000000000000000602082015250565b60006108cc602d836106fe565b91506108d782610870565b604082019050919050565b600060208201905081810360008301526108fb816108bf565b9050919050565b82818337600083830152505050565b6000601f19601f8301169050919050565b600061092e83856106fe565b935061093b838584610902565b61094483610911565b840190509392505050565b6000604082019050818103600083015261096a818587610922565b905061097960208301846104e4565b949350505050565b7f77726f6e67206f776e65722c2063616e74207472616e73666572000000000000600082015250565b60006109b7601a836106fe565b91506109c282610981565b602082019050919050565b600060208201905081810360008301526109e6816109aa565b905091905056fea2646970667358221220fac2d6828363f7c297390bc4b0413892e7cec5669c265c7493280fbd34e8f3f264736f6c634300080a0033",
  "immutableReferences": {},
  "source": "// SPDX-License-Identifier: MIT\r\npragma solidity >= 0.5.16 < 0.9.0;\r\n\r\ncontract Weather_Request {\r\n\r\n    uint public price;\r\n    bool public isActive;    \r\n    address admin;\r\n\r\n\r\n    constructor(){\r\n        admin = msg.sender;\r\n\r\n    }\r\n\r\n    event cityParams(\r\n        string cityName,\r\n        bool isMetric\r\n        \r\n    );\r\n\r\n    function sendCityParams(string calldata _cityName, bool _isMetric) external payable {\r\n        if (msg.value < price*1000000000000000 ) {\r\n            revert('Not enough ether');\r\n        }\r\n        \r\n        if (!isActive){\r\n            revert('API inactive, check decentapi.com for status.');\r\n        }\r\n\r\n\r\n        emit cityParams(_cityName, _isMetric);\r\n\r\n\r\n\r\n    }  \r\n\r\n\r\n    function setPrices(uint _price) external {\r\n        if (msg.sender != admin) {\r\n            revert('wrong owner, cant update');\r\n        }        \r\n        \r\n        price = _price;    \r\n\r\n\r\n\r\n    }\r\n\r\n    function setApiState(bool _isActive) external {\r\n        if (msg.sender != admin) {\r\n            revert('wrong owner, cant update');\r\n        }\r\n\r\n        isActive = _isActive;\r\n\r\n\r\n    }\r\n\r\n\r\n\r\n    function transferFunds(address payable recipient, uint256 amount) external {\r\n        if (msg.sender != admin) {\r\n            revert('wrong owner, cant transfer');\r\n        }\r\n        recipient.transfer(amount * 1E18);\r\n    }\r\n\r\n    \r\n\r\n\r\n\r\n\r\n\r\n\r\n\r\n\r\n\r\n}",
  "sourcePath": "C:\\Users\\Salah\\projects\\web3_weather\\contracts\\Weather_Request.sol",
  "compiler": {
    "name": "solc",
    "version": "0.8.10+commit.fc410830.Emscripten.clang"
  },
  "schemaVersion": "3.4.3",
  "updatedAt": "2021-12-25T02:29:31.176Z",
  "networkType": "ethereum",
  "devdoc": {
    "kind": "dev",
    "methods": {},
    "version": 1
  },
  "userdoc": {
    "kind": "user",
    "methods": {},
    "version": 1
  }
}